:1000000071C0000081C000007FC000007DC0000002
:100010007BC0000079C0000077C0000075C0000000
:1000200073C0000071C000006FC000006DC0000010
:100030006BC0000069C0000067C0000065C0000020
:1000400063C0000061C000005FC000005DC0000030
:100050005BC00000AEC0000057C0000055C00000EB
:1000600053C0000051C000004FC000004DC0000050
:100070004BC0000049C0000047C0000045C0000060
:1000800043C0000041C000003FC000003DC0000070
:100090003BC0000039C0000037C0000035C0000080
:1000A00033C0000031C000002FC000002DC0000090
:1000B0002BC0000029C0000027C0000025C00000A0
:1000C00023C0000021C000001FC000001DC00000B0
:1000D0001BC0000019C0000017C0000015C00000C0
:1000E00013C0000011241FBECFEFD1E2DEBFCDBF91
:1000F00000E00CBF22E0A0E0B2E001C01D92AB30F6
:10010000B207E1F728D05FC07BCF8EEF8093030268
:10011000809100028F5F8093000208958EBD0DB420
:1001200007FEFDCF08952C9808952C9A08950F93FB
:100130001F93CF93F8DF03E012E0C0E08C2FEEDFD7
:10014000F80181918F01EADFCF5FC830B9F7CF9115
:100150001F910F91EACF2FEF89E698E1215080405F
:100160009040E1F700C00000E3E0F2E09FE788E0A4
:100170008E0F91938E13FDCF87E084B92C9A81E581
:100180008CBD8CE987BD82E084BD96E095BD8093EF
:100190006E00789480910102813011F414BCFECF7E
:1001A000809102028130B1F710920202AEDFBFDF10
:1001B000F7CF1F920F920FB60F9211240F900FBE20
:0A01C0000F901F901895F894FFCFE0
:00000001FF
